:10000000303F0020354800003148000031480000F2
:1000100000000000000000000000000000000000E0
:100020000000000000000000000000003148000057
:1000300000000000000000003148000031480000CE
:100040003148000031480000192B0000B1220000A7
:1000500031480000314800003148000031480000BC
:10006000A52F0000B52F0000C52F0000D52F0000E0
:10007000E52F0000F52F0000314800003148000056
:1000800031480000ED430000FD4300000D44000036
:100090001D4400002D440000FD1F000031480000F9
:1000A000314800003148000031480000314800006C
:1000B0000000000010B5064C2378002B07D1054B3B
:1000C000002B02D0044800E000BF0123237010BDC4
:1000D000C00900200000000018F40100084B10B512
:1000E000002B03D00749084800E000BF0748036819
:1000F000002B00D110BD064B002BFBD09847F9E731
:1001000000000000C409002018F4010018F40100E8
:100110000000000010B50448044B9847044B984772
:10012000044B984710BDC046F4D10100DD6B0100BF
:10013000410D00009D17000070B51148114CA047FB
:10014000114E3000114DA8471148A0473000A84774
:100150001048A0471048A0471048A0471048A047A3
:100160001048A0471048A0471048A0471048A04793
:100170001048A0471048A0471048A84770BDC04687
:10018000D8DD0100DD6B010078D50100196B01009D
:10019000ACD50100DCD50100F0D5010020D601006E
:1001A0003CD601004CD601005CD6010074D601009B
:1001B00084D6010090D60100ACD60100E0D6010043
:1001C00070B51A4B9847002801D1194B9847194B25
:1001D0009847002801D1164B98471748174CA0475D
:1001E0001748A0471748A047174E184C1CE017485F
:1001F000174B9847002808D1B0472860431CF6D019
:1002000081B22000134B9847F1E7134D642200217F
:100210002800124B9847642229000C48104B98473D
:10022000642128000F4B98470F4DE5E7C9170000E0
:10023000C116000031190000F4D80100DD6B010087
:1002400024D9010088D90100D94C0000D410002025
:10025000390E000039370000DC090020656A010012
:1002600085380000F94B0000400A002030B58FB0FF
:100270003F48404B9847404B984700285DD03F4B44
:10028000984700285CD03C4B984700285BD003215E
:100290003B483C4B98473C4B9847002856D0072199
:1002A0003A48384B9847384B9847002851D0062198
:1002B0003748344B9847344B984700284CD00C2192
:1002C0003448304B9847304B9847002847D01E227F
:1002D000002106A8304B984701AC304B220023CBBD
:1002E00023C2196811601B79137106A92C482D4B84
:1002F000984706A920002C4B984720002B4DA84773
:10030000201803222A492B4B98472000A847C1B246
:1003100020001C4B98471C4B9847002822D0264BA6
:100320009847002821D02548254CA0472548A047BC
:100330002548104B98470FB030BD244B98479EE797
:10034000224B98479FE7214B9847A0E71F4B9847C0
:10035000A5E71E4B9847AAE71C4B9847AFE71B4BF6
:100360009847B4E7194B9847D9E7184B9847DAE70D
:10037000F8D00100DD6B0100C91700003119000041
:100380002CD10100051900003D18000030D10100FA
:1003900038D1010040D10100656A0100E0D10100BF
:1003A00050D10100B1190000D96E0100356F010074
:1003B0003CD1010041690100FD17000060D101003E
:1003C000196B010094D10100B0D10100C1160000E9
:1003D00070B53448344B9847344B9847002801D1C6
:1003E000334B9847334B9847002801D1304B9847FF
:1003F0002E4B9847002801D12D4B98470B212E48B2
:100400002E4B98472E4B9847002801D1284B9847F0
:1004100007212C48294B9847294B9847002801D1A0
:10042000234B9847234B9847002801D1204B9847EE
:100430002548264CA0472648A0472648A0472648DE
:10044000194B9847254D264E25E02648264B9847C0
:1004500000280CD1A8472060431CF6D0B0470028E4
:10046000F3D0224B19881F48214B9847EDE7214CC8
:10047000642200212000204B984764222100194863
:100480001E4B984720001E4B9847C1B220001D4BC1
:100490009847002801D0154CDCE716491A480B4B49
:1004A0009847F8E7B0D90100DD6B0100C9170000DB
:1004B000C116000031190000E0D901000519000043
:1004C0003D180000ECD90100F4D90100196B0100BE
:1004D0002CDA01007CDA0100E4DA0100D94C0000DA
:1004E000D5160000D4100020390E0000400A00206C
:1004F00039370000DC090020656A010085380000FA
:10050000356F0100B11800002CDB010070B53448D4
:10051000344B9847344B9847002801D1334B9847C8
:10052000334B9847002801D1304B98472E4B9847C2
:10053000002801D12D4B984707212E482E4B984774
:100540002E4B9847002801D1284B984709212C4869
:10055000294B9847294B9847002801D1234B9847AE
:10056000234B9847002801D1204B98471E4B9847B2
:10057000002801D11D4B9847032122481E4B984764
:100580001E4B9847002801D1184B98471E481F4C16
:10059000A0471F48A0471F48A0471F4E1F4C1CE004
:1005A0001E481F4B9847002808D1B0472860431CBD
:1005B000F6D081B220001B4B9847F1E71A4D642218
:1005C00000212800194B9847642229001348184B32
:1005D000984764212800174B9847174DE5E7C04618
:1005E000E4D60100DD6B0100C9170000C116000050
:1005F0003119000008D70100051900003D1800005E
:1006000010D701002CD101001CD70100196B01008B
:1006100040D7010068D70100D94C0000D410002059
:10062000390E000039370000DC090020656A01003E
:1006300085380000F94B0000400A0020F0B5C6469E
:1006400000B586B080466748674B9847674B984728
:10065000002800D185E0664B9847002800D183E050
:10066000624B9847002800D181E007216148624B26
:100670009847624B984700287CD0092160485E4B20
:1006800098475E4B9847002877D0594B98470028E9
:1006900076D0564B9847002875D003215948564BC1
:1006A0009847564B9847002870D05748574CA0475A
:1006B0005748A0470024574F574E584DB847306011
:1006C000A847002865D1E3B20B2BF7D954484F4B0C
:1006D00098470C2103A8534B98475348424B9847DF
:1006E00003215248444B9847514C524D6E1C524F77
:1006F0002000B8470028FBD06422002128004F4B7F
:100700009847642229004A484D4B984764212800A5
:10071000444B98470C22310068464A4B98470C22BC
:1007200003A96846484B98470028E0D103A94748E9
:10073000364CA0474648A047032146482E4B9847D1
:100740002E4B984700282ED04346002B2ED14248EE
:100750002E4B9847414B984700283FD1404B984734
:100760003CE03F4B984776E73D4B984778E73C4B5A
:1007700098477AE73A4B98477FE7394B984784E7A1
:10078000374B984785E7364B984786E7344B984771
:100790008BE7214B1878334B984703ABE054013477
:1007A0000C2C8BD192E72E4B9847CDE72E48174B58
:1007B000984703A901202D4B9847002809D12C48C0
:1007C000124B9847254B9847002805D1244B984752
:1007D00002E028480D4B9847274B984706B004BCC9
:1007E0009046F0BD70D70100DD6B0100C917000015
:1007F0003119000008D70100051900003D1800005C
:1008000010D701002CD1010098D70100196B01000D
:1008100068D70100B94C0000400A0020ED19000023
:1008200008D80100F94B0000D8DD010020D80100F4
:10083000D4100020DC090020390E0000656A010098
:100840008538000041690100996F010024D801003A
:1008500044D8010058D801005CD80100FD17000001
:10086000C11600000F1A00007CD8010055190000C5
:10087000A8D80100D8D801003901000010B51148EE
:10088000114B9847114B9847002811D0104B9847AF
:10089000002810D00D4B984700280FD005210D4897
:1008A0000D4B98470D480E4B98470E4B984710BD7F
:1008B0000D4B9847EAE70C4B9847EBE70A4B9847F4
:1008C000ECE7C046F8D40100196B0100C91700001D
:1008D0003119000038D5010005190000D8DD0100EC
:1008E000DD6B010039010000C116000010B505489C
:1008F000054B9847054B98470548064B9847064BCC
:10090000984710BD40D50100196B01009D170000EC
:10091000D8DD0100DD6B01003901000010B50400D5
:10092000064B9847002800D110BD2000044B984783
:1009300082B221000348044B9847F5E7D516000022
:10094000356F0100D4100020C937000070B588B0A1
:100950008A488B4B98478B4B9847002860D08A4B2E
:10096000984700285FD0874B984700285ED00B211E
:100970008648874B9847874B9847002859D00721CE
:100980008548834B9847834B9847002854D07E4B2B
:100990009847002853D08148814CA0478148A04700
:1009A0008148A0478148A0478148A0478148744BAF
:1009B0009847814D814C824E2800A0470028FBD0EB
:1009C0006422002130007F4B9847642231007A482E
:1009D0007D4B984730007D4B9847C1B230007C4B2F
:1009E00098470028E8D1764C64212000794B98473D
:1009F00079492000794B9847002823D07048734BE1
:100A000098474F2825D16E4B5B7F7C2B28D14E3BDE
:100A10006B4AD35C7C2B23D1694C2000002134E04D
:100A20006F4B98479BE76E4B98479CE76C4B9847FA
:100A30009DE76B4B9847A2E7694B9847A7E7684B40
:100A40009847A8E76748564B98476748674B9847C9
:100A50000CE06748524B98476648644B984705E05E
:100A600060484F4B98476048604B984708B070BD4E
:100A7000303B1B01DBB20FE0303AD2B29B186A4622
:100A80008B540131023008290CD00200437B402BEB
:100A9000EED9373B1B01DBB2927B402AECD9373AC7
:100AA000D2B2EBE754483E4B984708216846534B77
:100AB0009847002002AA0BE0303B1B01DBB20EE09E
:100AC0003039C9B25B1883540130023408280CD085
:100AD0002100A37F402BEFD9373B1B01DBB2C97F3D
:100AE0004029EDD93739C9B2ECE745482C4B984736
:100AF000082102A8414B9847314C21002F3104A80E
:100B00004F340BE0303B1B01DBB20EE0303AD2B287
:100B10009B18037002310130A1420CD00A000B78FF
:100B2000402BEFD9373B1B01DBB25278402AEDD97D
:100B3000373AD2B2ECE73348194CA047102104A849
:100B40002E4B9847082168462F4B9847082102A84A
:100B50002E4B9847102104A82D4B98472D48A047AD
:100B60002D48224B984700202C4B98472C4B9847F8
:100B70002C4D2D4CA847A047FCE7C0461CD20100D5
:100B8000DD6B0100C917000031190000E0D9010038
:100B9000051900003D180000ECD90100F4D901004E
:100BA000196B01002CDA01007CDA010068D2010027
:100BB000BCD2010008D30100D4100020390E00007F
:100BC000DC090020656A010085380000356F0100EE
:100BD000B1180000F94B000064D30100F17201006C
:100BE000C116000074D30100ACD301001D09000040
:100BF000DCD3010014D4010044D40100211A000008
:100C00005CD4010074D40100791600009116000034
:100C1000A91600008CD40100C8D40100A111000065
:100C200045130000E9150000F515000070B5164BDE
:100C30009847164E164D174CB0472860431CFBD002
:100C4000313808281CD8800023589F46124B9847FB
:100C5000124B9847F0E7124B9847124B98470020E9
:100C6000114B9847E8E701200F4B9847E4E70F4BFB
:100C70009847E1E70E4B9847DEE70E4B9847DBE7D6
:100C8000014B9847D8E7C04639010000D94C000015
:100C9000400A0020D4D00100C10100006D02000014
:100CA000D10300000D0500003D0600007D08000096
:100CB000ED0800004D090000F8B5CE46474680B566
:100CC00006000D00142200211A481B4B9847002DE6
:100CD00029D03400013DE8B2013030180023154A14
:100CE00094460F27914606E04A4655540233DBB23C
:100CF0000134844217D09846250022781209110049
:100D00003731092A01DC30321100624646469155DE
:100D1000591CC9B22A783A4015003735092AE3DC54
:100D200030321500E0E70348044B98470CBC90466E
:100D30009946F8BD440A0020656A01001D090000BB
:100D400030B591B08023DB05009300230193FF228F
:100D500069460A8100228B72CB72012124206C46E5
:100D600021540130215425316354013163540A93D5
:100D7000053163540131635405932382E37622766F
:100D8000227762761323A3766277C4239B030393AF
:100D900001235B420C930D93204B0E93204B0F933A
:100DA000E1235B0208931F4D1F4C6A461F49280030
:100DB000A0470028F9D11B4D2C6820001C4B9847F8
:100DC0001F2318401E3B83401A4A13602A68D369C8
:100DD000002BFCD12368022213432360114B1B68B4
:100DE000DA69002AFCD15968802252020A435A600B
:100DF00001210C4AD171DA69002AFCD1DA69002A92
:100E0000FCD15968802292020A435A600121054AA6
:100E10009171DA69002AFCD111B030BD02001200D4
:100E200002001300D4100020D5330000000400425B
:100E3000752F000000E100E00368187E4007C00F36
:100E400070470000F8B50B78022B03D0042B00D1BB
:100E500096E0F8BD4B7B1E2B00D98DE09B00894AA4
:100E6000D3589F460E7B002E1ED08F68002F1BD0BC
:100E70008548864CA04739788548A0473100854889
:100E8000A0478548A047013E002E09DD00247F4D84
:100E90003B1959788148A8470134E4B2B442F7DBE2
:100EA0007F48804B9847D4E77F487E4B9847D0E7F0
:100EB0007E48764B9847CCE77D48744B9847C8E707
:100EC0007C48724B9847C4E77B48704B9847C0E713
:100ED0007A486E4B9847BCE779486C4B9847B8E71F
:100EE00078486A4B9847B4E77748684B9847B0E72B
:100EF0007648664B9847ACE77548644B9847A8E737
:100F00007448624B9847A4E77348604B9847A0E742
:100F100072485E4B98479CE771485C4B984798E74E
:100F200070485A4B984794E76F48584B984790E75A
:100F30006E48564B98478CE76D48544B984788E766
:100F40006C48524B984784E76B48504B984780E772
:100F50006A484E4B98477CE769484C4B984778E77E
:100F600068484A4B984774E76748484B984770E78A
:100F70006648464B98476CE76548444B984768E796
:100F80000B791E2B79D89B00624AD3589F46624842
:100F9000444B98476148624B984762483B4B98479F
:100FA00057E75D483F4B9847F7E74048374B98472E
:100FB000F3E73F48354B9847EFE73E48334B9847B8
:100FC000EBE73D48314B9847E7E757482F4B9847A9
:100FD000E3E73A482D4B9847DFE739482B4B9847D2
:100FE000DBE73848294B9847D7E73748274B9847DE
:100FF000D3E73648254B9847CFE73548234B9847EA
:10100000CBE73448214B9847C7E733481F4B9847F5
:10101000C3E732481D4B9847BFE731481B4B984701
:10102000BBE73048194B9847B7E72F48174B98470D
:10103000B3E72E48154B9847AFE72D48134B984719
:10104000ABE72C48114B9847A7E72B480F4B984725
:10105000A3E72A480D4B98479FE729480B4B984731
:101060009BE72848094B984797E72748074B98473D
:1010700093E72648054B98478FE72C48034B984742
:101080008BE7C04640DB01004CDC0100196B01001E
:1010900068DC010088DC0100A0DC0100ACDC0100A0
:1010A000B0DC0100DD6B0100D0DC0100F4DC0100EC
:1010B00008DD010020DD010038DD010048DD010010
:1010C00060DD01007CDD010094DD0100A8DD010090
:1010D000C0DD0100DCDD0100FCDD01001CDE0100E3
:1010E00038DE01004CDE010064DE010070DE01002C
:1010F0007CDE0100A0DE0100BCDE0100D4DE0100C8
:10110000E8DE0100F8DE01000CDF010024DF010051
:1011100038DF0100BCDB010048DF010060DF0100B7
:101120001D0900009CDF010078DF010088DF01005D
:1011300010B50400054B9847054B9847210005481A
:10114000054B98470548064B984710BDC14F000016
:10115000414A000038DC0100196B0100F0D80100A1
:101160001D09000010B5074B9847074B9847074BE0
:101170009847074B9847074B9847074B9847074BAB
:10118000984710BD4DB50000094E0000D1AD0000DC
:10119000E9BA0000F551000009AE00009DC1000051
:1011A00070B58AB004004E494E484F4B9847200016
:1011B0004E4B9847A31E012B00D878E0002C03D19A
:1011C000052227236B441A70272169440720484CC5
:1011D000A04748490020A04747490120A047474968
:1011E0000320A0472621694401230B701920A04742
:1011F0002521694400250D700620A04709A90D701E
:101200003320A0470822002101A83D4CA047082216
:10121000002103A8A0471022002105A8A0473948B3
:10122000394B98476B465C1C220000212320374B2A
:1012300098472378022B3FD0002B45D06B469C1C4F
:10124000220000210720314DA84721783048314C39
:10125000A04701AA00210020A8472F48A047082145
:1012600001A82E4EB04703AA00210120A8472C4810
:10127000A047082103A8B04705AA00210320A847DA
:101280002848A047102105A8B0476B46DE1C320055
:1012900000211920A8472448A0473378012B17D0F4
:1012A000042B19D02148184B98470AB070BD03226F
:1012B00027236B441A7081E71D48134B984702217E
:1012C0001C48144B9847B9E71B480F4B9847B5E7A4
:1012D0001A480D4B9847E5E719480B4B9847E1E74B
:1012E0009D140000450E0000E1CF0000A50A01009A
:1012F0006D050100700A0020580A0020600A0020D5
:10130000656A010070E00100DD6B010029E5000065
:10131000ECE00100196B0100FCE00100211A000063
:1013200008E1010014E1010020E10100D8DD010025
:10133000ACE00100C4E00100D4E001002CE10100B8
:1013400038E1010070B500220F4B1A7000200F4BDE
:10135000984704000E480F4B98470020082C00D0F7
:1013600070BD0D480D4CA0470D48A04708210D4801
:101370000D4DA8470D48A04708210D48A8470D4826
:10138000044B98470120EBE7790A00205DDE00005E
:1013900044E10100DD6B010078E101001D0900005E
:1013A000FCE00100700A0020B90C000090E101008F
:1013B000580A00209CE1010010B5094C2478002C4B
:1013C00000D110BD074C6260237220706170200054
:1013D000054B98470828F4D10448054B9847F0E797
:1013E000790A002008110020B9D10000C8E10100ED
:1013F000DD6B010070B586B005A8184B9847059EB7
:10140000174C1849301C184B98471849184B9847E7
:101410008421C905174B9847174DA847029003919F
:10142000301CA84700900191144A14212000144B4D
:10143000984721001348144B98471448144DA84767
:101440002000A8472000134B9847C3B22200012177
:101450000020114CA04706B070BDC0462DB600005C
:101460007C0A002000001041E53E01000000A04081
:10147000053B0100E1370100D960010028E20100CD
:10148000116E010034E20100196B010050E201000D
:101490001D090000356F0100B913000010B582B0BE
:1014A000082814D010282AD018282FD01B2834D070
:1014B0000022204B1A702048204B98472048214B8F
:1014C00098471C4B1B78002B2ED002B010BD012278
:1014D000184B1A701C48194B98471C48194B9847D1
:1014E0001B4B98471B4C20001B4B98472078002330
:1014F00000931A4B00221A491A4CA047E1E7002238
:101500000C4B1A7018480F4B9847DAE70022094B2A
:101510001A7016480B4B9847D3E70022054B1A70F8
:101520001348084B9847CCE71248064B9847124B94
:101530009847CAE7790A002038E001001D09000039
:1015400048E00100DD6B0100D4DF0100E8DF0100AD
:10155000F51300000000002051BB00007D150000C5
:1015600080C3C90185BB0000FCDF010014E001005D
:1015700020E0010058E001004513000010B582B0E2
:101580000D480E4B98470E4B1B78002B11D00D4B7E
:1015900098470D4B1878002300930C4B00220C4900
:1015A0000C4CA047082802D00B480C4B984702B0BF
:1015B00010BD0B4B9847ECE7E0E10100DD6B01004B
:1015C000790A0020F5130000000000207D150000BE
:1015D00080C3C90185BB0000FCE10100196B01005B
:1015E000451300000020704710B5014B984710BD0F
:1015F000ADC1000010B584B001ABFA229200019297
:10160000144A039201221A710022134B1A7000200F
:10161000124B9847002801D104B010BD00236A4640
:101620001370013353709370694604200C4CA0472B
:1016300069460520A0470B4B98470B4B984701A8DC
:101640000A4B98470028E7D1094B9847094B984720
:10165000E2E7C04631110000780A0020290D0100A0
:101660000D2800008D4B0000E54F0000595300008D
:10167000C14F0000414A000010B50A0001000248B5
:10168000024B984710BDC046700A00204169010016
:1016900010B50A0001000248024B984710BDC04631
:1016A000580A00204169010010B50A0001000248F3
:1016B000024B984710BDC046600A002041690100F6
:1016C00010B50248024B9847FEE7C046B4E201005D
:1016D000196B0100014B18787047C046900A002032
:1016E00010B582B0040001A901234B7000228A705A
:1016F0000B700820074B9847002C05D18022520020
:10170000054B5A6102B010BD80225200024B9A6113
:10171000F8E7C0460D2800000028004010B5002062
:10172000034CA0470120034B98470120A04710BD60
:10173000E1160000C51A0000F0B583B00190104E0C
:10174000104D114F02E0013E002E16D02800B84780
:10175000041EF8D0642200210C480D4B98476422E7
:101760000A4908480B4B9847019908480A4B984783
:101770000028E8D0200003B0F0BD0024FAE7C046FE
:10178000FFFF0F00D4100020390E0000940A002043
:10179000656A010085380000F172010010B5064B42
:1017A000984708210548064B9847002801D001209A
:1017B00010BD044B9847C0461D17000004E301000C
:1017C00039170000C116000070B5084D242128000B
:1017D000074CA04724212800A04724212800A04727
:1017E00005210448044B984770BDC046D410002022
:1017F0003937000074E201003917000070B50B4D55
:101800002D2128000A4CA0472D212800A0472D217A
:101810002800A0470D212800A0470A212800A04742
:1018200005210448044B984770BDC046D4100020E1
:10183000393700007CE2010039170000F8B5134F7A
:10184000134D144E02E0013F002F1BD02800B0477B
:10185000041EF8D0642200210F48104B98476422E0
:101860000D490B480E4B98470E490B480E4B9847B5
:10187000002808D10D4908480B4B98470028E2D0B2
:10188000002400E000242000F8BDC046FFFF0F0048
:10189000D4100020390E0000940A0020656A01006F
:1018A00085380000A4E20100F1720100ACE2010001
:1018B00070B504000D000F490F4B9847002807D062
:1018C00001220E4B1A7023780020252B0AD070BD00
:1018D0000B492000084B98470028F4D00022074B02
:1018E0001A70F0E76419013C2078253843425841CA
:1018F000C0B2ECE784E20100F1720100900A00201E
:1019000094E20100F8B500290CD004000139CDB2F1
:1019100001354519044E054F21783000B847013490
:10192000AC42F9D1F8BDC046D410002039370000D0
:1019300010B505210348044B984708210348044B80
:10194000984710BD10E301000519000004E30100F1
:101950003917000010B5124B43221A70173A5A700B
:10196000002819D005329A702C220D4BDA70002312
:101970000B4CC85CE218107101330C2BF9D10848EC
:1019800001330374033B43741221064B984708212B
:101990000548064B984710BD3022014B9A70E3E78B
:1019A000940A00200519000068E2010039170000C0
:1019B000F0B5C64600B5050088460024084E094F1C
:1019C00006E02A5D600040440749B8470134E4B2AC
:1019D0002800B0478442F4D304BC9046F0BDC04612
:1019E000356F0100956E010018E301000200303AE6
:1019F0000123092A09D9313A052A06D94138C0B24A
:101A00000023052282425B41DBB2180070470200CE
:101A1000613A0300052A01D82038C3B21800704784
:101A2000F8B5040000290BD00139CDB201354519B4
:101A3000054E064F21783000B8470134AC42F9D149
:101A40000348044B9847F8BD20E30100196B0100DF
:101A5000D8DD0100DD6B010070B50020084B984710
:101A60000500084CFA218900A047074B1860074978
:101A70002800A047064B18600522064B1A6070BD6F
:101A80001D410000453101000400002040420F00CC
:101A90000800002010E000E030B5084B1C68084A40
:101AA000002580214902013807D3002CFBD0546067
:101AB000956013680B42FCD0F5E730BD08000020AC
:101AC00010E000E030B5084B1C68084A0025802172
:101AD0004902013807D3002CFBD05460956013688D
:101AE0000B42FCD0F5E730BD0400002010E000E020
:101AF0000C4B1B68002B06D1EFF31083002B07D093
:101B00000022094B1A70074A1368013313607047AB
:101B100072B6BFF35F8F0022044B1A700132024B82
:101B20001A70F0E7F80A0020FC0A00200C000020E0
:101B3000084B1A68013A1A601B68002B09D1064B42
:101B40001B78002B05D00122044B1A70BFF35F8F66
:101B500062B67047F80A0020FC0A00200C00002042
:101B6000F0B5C64600B582B001AC01256570002312
:101B70009846A370257021001320124EB047124FD3
:101B800080231B03BB61257021001220B0478023F6
:101B9000DB02BB61257021000D20B04780239B0133
:101BA0007B61257021000920B04780239B007B6169
:101BB00043462370657021001C20B04702B004BC6E
:101BC0009046F0BD0D28000000280040002070471E
:101BD00010B500230022037043708370C37000218E
:101BE00003830362C36106240471C0246401C480BA
:101BF000017242728272C27202732A2402554273C7
:101C00008273C27303610275063C0255C384038567
:101C1000417510BDF0B5CE4600B598B005000C007A
:101C200016000800B24B98472C60B24A136A08218C
:101C30000B43136222780523D20704D5180018B08D
:101C400004BC9146F0BD2A68138C9BB2002BFBD1DB
:101C500022781C339207F1D473782B71002B04D1B6
:101C6000A54AD36904210B43D3610023AB60EB6029
:101C70002B61AB76EB762B832B7780009F4BC55087
:101C80002A23F35C002B05D1337B002B02D10133D7
:101C90006B7701E000236B772F6833786A46137007
:101CA00069461E20964B98471E20964B98473479DC
:101CB0005822954902A8954B9847132C0BD9F488C4
:101CC0005822914902A8914B9847132C11D900240E
:101CD0008E4B99461EE0A40002ABE05801A90023F8
:101CE0004B70CB708B7001330B70C0B2884B984730
:101CF000E5E7A40002ABE05801A900234B70CB70CC
:101D00008B7001330B70C0B2814B9847DFE7013411
:101D1000142C18D00123A34032691A42F7D058225C
:101D2000794902A8C847132CF1D8A30002AA9858F1
:101D300001A900234B70CB708B7001330B70C0B2C4
:101D4000734B9847E3E7737B9B01B27BD20113434C
:101D5000DBB23B70337DDB0172781343DBB2BB70C7
:101D6000F378342B00D940E19B006A4AD3589F4650
:101D70000422102002211AE0717A327A102016E033
:101D800006221020012112E00822102000210EE07E
:101D90000022302000210AE000222020002106E05D
:101DA00000220020002102E002221020012109016E
:101DB00070230B4013433B732A68138C9BB2002B98
:101DC000FBD1727D17333F2A00D937E7F37BDB0164
:101DD0001A43D2B27A732A68138C9BB2002BFBD1C0
:101DE000B3787B702423F35CDB00327B92001A43D0
:101DF000F37A1343B27A5200134303437B812A6878
:101E0000138C9BB2002BFBD1328B002A20D01028E0
:101E100000D1C9E000D883E0202800D1A3E0302819
:101E200016D1F37A002B0AD0F16980311723FF29EC
:101E300000D903E7316A8031FF2900D9FEE6172374
:101E4000F169FF2900DDF9E6316AFF2900DDF5E6D9
:101E50007B891A437A812A68138C9BB2002BFBD1B1
:101E6000B38BFB812A68138C9BB2002BFBD1338C84
:101E70003B822A68138C9BB2002BFBD13379F2880A
:101E800013433B812A68138C9BB2002BFBD12A336E
:101E9000F35CFB7007233B711D33F35C002B1BD0FD
:101EA000F28C1D4917238A4200D9C7E67A822A6834
:101EB000138C9BB2002BFBD1318D80231B01CA18E0
:101EC000154892B21723824200D9B7E6B9822A6830
:101ED000138C9BB2002BFBD1104B1B681A02E02124
:101EE000C9000A409B065B0F1343BB850023A5E690
:101EF000CD1B00000004004000140040141100201D
:101F0000F941000089410000FCE301004169010042
:101F1000F542000028E30100FF0F00002060800070
:101F2000002895D1F37A002B12D0F36980200001AC
:101F30008446634419002E481723814200D97DE668
:101F4000336A634419002A481723814200D975E691
:101F500027491723F069884200DD6FE6306A88421E
:101F600000DD6BE674E7F37A002B12D0F369802072
:101F700080008446634419001E481723814200D91B
:101F80005CE6336A634419001A481723814200D97A
:101F900054E618491723F069884200DD4EE6306A9E
:101FA000884200DD4AE653E7F37A002B12D0F3694A
:101FB000802000028446634419000F4817238142A1
:101FC00000D93BE6336A634419000B48172381426A
:101FD00000D933E608491723F069884200DD2DE671
:101FE000306A884200DD29E632E7172326E6C0463C
:101FF000FF0F0000FF030000FFFF000070B52F4B34
:102000001C6823689A795D791540EA072AD5012270
:102010009A716269931C636123689B8C9BB21380E5
:10202000238B013B9BB22383002B15D0637F002BB6
:1020300018D02268D3795BB2002B13DB138C9BB2D0
:10204000002BFBD1137E02210B4313762268138CE5
:102050009BB2002BFBD105E0012322681371237F83
:10206000052B16D06B0708D5042322689371E37EF5
:102070009B0702D5A37E9B0717D4AB0708D5022385
:1020800022689371E37E5B0702D5A37E5B0710D4C1
:1020900070BD00232377E37EDB07E3D5A37EDB0758
:1020A000E0D52000A3689847DCE72000E368984764
:1020B000E3E7236920009847EAE7C04614110020AF
:1020C00001230370002343708370C37003710F22D8
:1020D00042718371C37103727047026813680221F1
:1020E0000B43136070470323026853710268D37176
:1020F0000268136802218B431360704770B50400B7
:102100000D00D37803712160537843711379837183
:1021100013789B029178C9020B43517809020B4353
:10212000D17889000B43117949010B4391798903D7
:10213000D07940030143107A00030143527912041D
:10214000F020000302400A4313431E002B689B0744
:1021500001D42E6070BD2000034B98472E602000F4
:10216000024B9847F6E7C046E7200000DB2000005E
:1021700070B5054CE56980239B012B43E361012386
:102180000B60024B984770BD00040040FD2000002A
:1021900070B54379012B05D0002B10D0022B0DD147
:1021A000082500E00625002310C99A1C9200066845
:1021B000B446624454600133AB42F5D370BD04258C
:1021C000F1E7000010B50023026813720F4B42685C
:1021D00013400F4A93420AD00379032B0ED00C0010
:1021E0001034036804C99A638C42FAD110BD0368A5
:1021F0000A689A6303684A689A63F7E78379023B3F
:10220000012BECD803680A689A63EFE7FF00FF0030
:1022100003000100002302681372104B4268134050
:102220000F4A93420AD00379032B0ED00A001032D2
:1022300003689B6B08C18A42FAD1704703689B6BA5
:102240000B6003689B6B4B60F7E78379023B012BC4
:10225000ECD803689B6B0B60EFE7C046FF00FF0004
:10226000030001001723002A01D0180070478B00DB
:10227000064A9B58002B03D0834205D01D23F4E768
:10228000890088500023F0E70023EEE71C110020AE
:102290001723002901D01800704700221F2800D8FA
:1022A000024A0123834013610023F4E70024004025
:1022B00070B50022104B1A70002310491F25104ED4
:1022C0000D4C0AE00D4908E023780133DBB223709E
:1022D0000F2B10D800211F2BF4D928001840012201
:1022E000824048691042EFD04A619B009B59002B05
:1022F000EAD09847E8E770BD18110020002400409C
:102300001C110020064A137802210B431370012090
:1023100053681942FCD153681842F9D17047C0463E
:1023200000240040064A137802218B4313700120D9
:1023300053681942FCD153681842F9D17047C0461E
:102340000024004010B5124A516980239B000B43C2
:102350005361104A137801210B431370013101209E
:1023600053681942FCD153681842F9D1094A1378CD
:1023700010210B431370084B19004031002204C395
:102380008B42FCD10822054B1A60054B984710BDC3
:1023900000040040002400401C11002000E100E087
:1023A0000523000000230360436001220272837250
:1023B0000132C27243727047F0B583B005000C0061
:1023C0001C4B984701A900234B70CB7023790B70ED
:1023D000237A8B702078184B984700211F2D00D846
:1023E000164907222A409200E77AA37A002B01D0EF
:1023F00008231F43EB089B00CB18D8690F26964093
:10240000B04397403A000243DA61637A002B0BD164
:102410008A690123AB40DB431B041B0C13408B6117
:10242000074B984703B0F0BD8A690123AB401343C3
:102430008B61F5E725230000F542000000240040F1
:102440000523000010B51E4A936904210B439361D4
:102450001C4B2022FF321A831A7D0523D20701D498
:10246000180010BD03781B02C0229200134041786F
:10247000C901FF220A401343817849001E220A4005
:102480001343C27892048021C9020A40134302799F
:102490001204C02189020A4013430A4A5360936818
:1024A0005B035B0F084908249C400C8093684B80B9
:1024B00043780B71138BDB05DB0F1B01D0E7C046A4
:1024C0000004004000400041000B002030B5304ABD
:1024D0001488538863438B420BD2802292012D4B88
:1024E000CB18934205D92C4C18232C4A8A18A242A7
:1024F0000ED82B4B5C688022D20222435A602022E5
:10250000FF321A831B7DDB0704D4254B5C60052357
:10251000180030BD452829D88300224AD3589F4649
:102520001F4B1B8BDB0503D51D4B5C601023EFE7B6
:10253000890849001A4BD96103E089084900184B02
:10254000D961FD2305001A3D1D4013D0A5231B02B0
:102550001843134B1880190001220B7D1342FCD045
:10256000002D0FD00E4B5C600023D1E70C4B5C605C
:102570001723CDE70A4B59688022D2020A435A60DA
:102580005B68E3E7064A536807490B405360E9E795
:10259000000B002000C07FFFFF1F00000000C0FFF5
:1025A0000040004154E40100FFFFFBFFF8B52F4B52
:1025B0001C885B886343834207D22D4E18252D4B20
:1025C000C318B34206D8012600E00026631E182572
:1025D000184201D02800F8BD013D9442FAD3264BA1
:1025E0001B7D123DDB07F5D5244C234B1C801D00C1
:1025F00001242B7D2342FCD02024FF341E4B1C835E
:10260000002A2CD0012305009D430023541EA4461C
:1026100009E0CF187F783F023C432C8002339BB205
:1026200002359A4204D9CC5C6345F2DBA4B2F4E7EC
:102630000E4B1B790025002BCCD13F2ACAD8002E87
:1026400006D10022010004200D4B98470500C1E788
:10265000002201001C200A4B98470500BAE7034BF3
:102660001B790025002BEAD0B4E7C046000B002000
:10267000FF1F00000000C0FF0040004144A5FFFF15
:10268000CD24000070B51B4B1C885B8863438342DC
:1026900005D2194E1825194BC318B34203D8631E2F
:1026A0001825184201D0280070BD013D9442FAD38C
:1026B000134B1B7D123DDB07F5D52024FF34104B57
:1026C0001C83002A14D0012398430023561E04E0E3
:1026D00002339BB202309A4208D90488A4B2CC5487
:1026E000B342F5DACD18240A6C70F1E70025DAE779
:1026F0000025D8E7000B0020FF1F00000000C0FFEE
:102700000040004110B5224A138852885A43824241
:1027100007D2204C182220494118A14207D8012491
:1027200000E000249B00013B1822184201D0100059
:1027300010BD1A4B1B7D133ADB07F8D5174B20222F
:10274000FF321A8380084000D861002C1BD05968E2
:102750008022D2020A435A605A68114A1A800F49ED
:1027600001220B7D1342FCD0002C04D00B4A53688D
:102770000C490B405360094B1A8B1C200240501E21
:1027800082419200D3E7084A044B1A80E7E7C0462B
:10279000000B0020FF1F00000000C0FF00400041B0
:1027A0001AA5FFFFFFFFFBFF02A5FFFF154B20222D
:1027B000FF321A839B685903490F183AFF3A8A403F
:1027C000027043801B0D83810F4B1B885B065B0FE0
:1027D000072B10D00622D21A0423934043600A4BE1
:1027E0001B8807221340072B08D00722D21A042384
:1027F00093408360704700234360F0E700238360C9
:10280000F8E7C046004000410040800000B583B0BA
:1028100001AB80221A700A785A704A789A708A78C6
:10282000DA701900014B984703B000BDF542000073
:1028300003681869431E9841C0B2704770B5040020
:1028400006680422084B1A60084D2000A84700289B
:10285000FBD13388022213433380044D2000A84764
:102860000028FBD170BDC04600E100E03128000027
:1028700070B504000668042180230A4AD1500A4D2D
:102880002000A8470028FBD1084B3381B38133884F
:10289000022293433380044D2000A8470028FBD137
:1028A00070BDC04600E100E031280000FF81FFFF5D
:1028B00070B5040006680A4B98470023A386E38698
:1028C000084D2000A8470028FBD13388012213437C
:1028D0003380044D2000A8470028FBD170BDC046BE
:1028E0007128000031280000F8B504000E000768C8
:1028F0000C4D2000A8470028FBD12379002B09D0DC
:102900001720012B05D1BE61064D2000A8470028E5
:10291000FBD1F8BD044B17209E42FAD8B6B23E83D5
:10292000F2E7C04631280000FFFF000070B5040048
:102930000668084D2000A8470028FBD12379002B0A
:1029400004D00020012B00D1B06970BD308B80B263
:10295000FBE7C04631280000F0B583B004000191C8
:1029600015000668134F2000B8470028FBD12379D3
:10297000002B0ED0012B19D11730012D17D8083597
:10298000AD00019BAB510B4D2000A8470028FBD1A7
:102990000DE01720022D0AD8074B019A9A4206D85B
:1029A0006B469B8810356D00AB53ECE71A2003B0E3
:1029B000F0BDC04631280000FFFF000070B50400E4
:1029C000150001601F4A516980235B000B4353616E
:1029D00005221D4B1A611D4B9847AB7823711C4B88
:1029E0001C6022682B79DB0329880B439BB2138080
:1029F000AB78002B13D01720012B0FD113889BB27B
:102A00001380EB78002B03D0138880210B431380B5
:102A1000A968002220000F4B9847002070BD138842
:102A200004210B431380EB781720002BF6D10022F2
:102A3000A9682000074EB047E96801222000B0478E
:102A40000020EBE70004004000100040B128000027
:102A50005C110020592900000A2A09D0072A07D949
:102A60000379002B10D0012B12D11633092A09D873
:102A7000931C9B001950838E012191400B439BB204
:102A8000838600231800704717230A2AFAD8EFE735
:102A90001723F7E710B502680A2911D0072912D9C0
:102AA00080235B000C00083CA340C024A40023400A
:102AB0005381C38E01228A4013439BB2C38610BD4B
:102AC000044B5381F5E701248C40FF2323405381BD
:102AD000EFE7C0460080FFFF10B502680A2910D05A
:102AE000072911D980235B000C00083CA340C024B7
:102AF000A40023401381C38E01228A409343C386DE
:102B000010BD044B1381F6E701248C40FF232340C2
:102B10001381F0E70080FFFFF8B5DE4657464E46CA
:102B20004546E0B52B4B1B689A461E68DB8E524625
:102B3000928E1A409046B289738913401AB2002AC5
:102B400008DBFF271F402AD0002401239946FE33CB
:102B50009B4614E043465B0507D41F4BB3813CBC46
:102B600090469946A246AB46F8BD53461B6B984724
:102B7000F3E75B461D40B5810134082CEFD02300FC
:102B80004D46A5402F42F4D04246224149461142CB
:102B9000EFD002339B0052469B589847E9E7DA058D
:102BA0000AD54346DB0503D480235B00B381D6E717
:102BB00053469B6A9847F7E79B05D0D543469B054C
:102BC00003D480239B00B381C9E75346DB6A98474F
:102BD000F7E7C0465C1100200080FFFFF0B5DE463D
:102BE00057464E464546E0B587B0804604911600EC
:102BF0001F000022002300218B463F2401202100DA
:102C0000009601975C4603944446059413E0202403
:102C1000641A0500E540A84614E0009C019D121BC3
:102C2000AB415C464D462C43A346039C45462C4392
:102C30000394013925D3202464420C19E7D40500FC
:102C4000A540A84604008C40A14692185B411400A0
:102C50001D00059E4F463E40B446049E47463E40FA
:102C6000B246664657463E4303D00600264332002E
:102C70002B00009C019D9D42DBD8CED19442D8D838
:102C8000CBE7039B5846190007B03CBC90469946D9
:102C9000A246AB46F0BD10B549084023002481424E
:102CA00002D2180010BD1C00091A631C9BB2884296
:102CB000F9D94023FF2CF4D814800023F1E7000059
:102CC000F0B583B00F00160008AA117804004C4339
:102CD0004022BC4202D9100003B0F0BD002B14D139
:102CE000020008000021194CA04701003A0000230F
:102CF0000020174CA04700220123121A8B41120C0E
:102D00001B041A4332800022E5E70022012BF9D18F
:102D10000A00002300210D4CA04702000B00009286
:102D20000193380000210A4CA047050080239B0135
:102D300040229842CFD8790FF800009A019BA04713
:102D4000EA00821AD2B252032A43DBE7613501005E
:102D5000DD2B000010B582B004000E4B1B78002B59
:102D600007D0002905D10B4B5B78834210D01D2082
:102D70000CE001A90C701120074B98471120074B5C
:102D80009847044B5C7001221A70002002B010BDFD
:102D90000020FBE7080B0020F941000089410000FA
:102DA0003C4B984232D00AD93B4B98424ED03B4BD9
:102DB000984255D03A4B984238D00020704784232F
:102DC000DB0598420CD0374B9842F6D1012917D039
:102DD000002957D0022915D0032915D00020EDE78E
:102DE000012907D000294BD0022905D0032905D09D
:102DF0000020E3E72C48E1E72C48DFE72C48DDE73B
:102E00002C48DBE72C48D9E72C48D7E7012907D025
:102E1000002939D0022905D0032905D00020CDE7AB
:102E20002748CBE72748C9E72748C7E7012907D044
:102E300000292BD0022905D0032905D00020BDE7A9
:102E40002248BBE72248B9E72248B7E7022903D066
:102E5000032903D00020B1E71F48AFE71F48ADE7C3
:102E6000012907D0002913D0022905D0032905D054
:102E70000020A3E71A48A1E71A489FE71A489DE7F0
:102E80001A489BE7032099E7194897E7194895E7FF
:102E9000194893E700080042001000420004004374
:102EA000000C00420004004203000500030006007D
:102EB000030007000300010003001E0003001F00C1
:102EC0000300090003000A0003000B0003001100C7
:102ED000030012000300130003000E0003000F00A4
:102EE000030017000300180003001900030004008A
:102EF00003000800030010000300160030B587B07F
:102F00000B4B6A4632CB32C232CB32C2009B834279
:102F10000BD001239A0069465258824206D00133F1
:102F2000062BF7D1002007B030BD0023D8B2FAE756
:102F30006CE5010070470000F0B50A4B1B78002BD0
:102F40000CD1094F094E0A4D0024DE515A19146064
:102F50000433182BF9D10122024B1A708000024B66
:102F6000C150F0BD0A0B00200C0B0020352F0000D3
:102F70006011002000B583B008236A461370013346
:102F80005370013393700133D370013313710133E4
:102F90005371034B98476B46185603B000BDC046AB
:102FA000FD2E000010B5024B1B680020984710BD95
:102FB0000C0B002010B5024B5B680120984710BD38
:102FC0000C0B002010B5024B9B680220984710BDE7
:102FD0000C0B002010B5024BDB680320984710BD96
:102FE0000C0B002010B5024B1B690420984710BD44
:102FF0000C0B002010B5024B5B690520984710BDF3
:103000000C0B0020F0B5D6464F464646C0B58AB0F8
:1030100006000F00140031600B689B070AD40B6890
:103020000520DB0700D497E00AB01CBC9046994607
:10303000A246F0BD936A0593D36A0693136B079378
:10304000536B089300250AE038009A4B98470EE02E
:103050000F231840814530D10135042D31D0E9B21C
:10306000AB0002AA0C201218D0580028ECD0431C48
:10307000F2D001040B0C9946000CC3B29C4600230D
:10308000020605D463465B09DB018B4A9046434444
:103090001F22604602409818403000788246802007
:1030A0005146C907D6D552089B1830331878C0B29C
:1030B0006346DB07CCD50009CCE7002333601C2036
:1030C000B2E711207D4B984722780025012A26D0AF
:1030D0006368A2681343E26813432B43227C617C3C
:1030E000002901D080210B43A17C002902D080213E
:1030F00089020A43E17C002902D0802189000A4329
:10310000217D002902D0802189010A4339680220EB
:1031100003438B4217D0002333601C2084E704AAAA
:103120000100A069664B984703001720002B00D0D0
:103130007AE73B7BDBB204AA127805309A4200D0D2
:1031400072E70C35C4E77B689342E4D1237873714E
:10315000237CB371002067E708005A4B9847052885
:1031600000D19FE0030012335749CD69012282400C
:103170002A43CA6109A92425625D0A70DBB2019362
:103180001800524B98470198514B9847605D0021B9
:10319000504B98472378012B19D03368984604ABDD
:1031A00080221A7000225A7001219970DA702378F7
:1031B000002B01D104AB9A70A36A0593E36A0693CE
:1031C000236B0793636B0893002705AD11E03B6801
:1031D0000C2213433B60E0E74046364B98470DE036
:1031E00004A90870000CC0B23B4B98470137042F6C
:1031F00007D0F9B2BB0058590028EDD0431CEFD1DD
:10320000F4E723787371237CB371A37CF371237D7E
:103210003372002202ABDA802378012B2AD0636854
:10322000A2681343E2681343217C627C002A03D125
:103230002A4A9278920701D580221343A27C002A61
:1032400002D0802292021143E27C002A02D0802226
:1032500092001143227D002A02D080229201114364
:103260004246126813434246136053680B4353604F
:103270000020D9E63068134B98471230C0B20F4B8C
:103280009847010002AB9A1DA0690D4B98470300B7
:103290001720002B00D0C7E602AB06331B7842464E
:1032A0001373BCE7084A136A02210B431362182305
:1032B00060E7C046A12D0000002800401D4200002C
:1032C000972C0000FD2E000000040040F941000092
:1032D00089410000552D0000F5420000002000410A
:1032E00010B544791523012C01D0180010BD047AC3
:1032F0000023002CF9D1002A58D04B78002B44D061
:1033000003681B7EDB0710D40A78D109002300294B
:1033100004D15309DB012E498C4663441F2111401F
:1033200001228A409A610523DFE70A78D409002345
:10333000002C04D15309DB01254CA44663441F240F
:1033400014400122A2405A6103681A7ED20701D5B7
:103350008A789A62C2790023002AC6D102680421C1
:10336000137E0B42FCD0117E00234907BDD5538B41
:103370005B0701D5042353838379012B02D0936A21
:103380000023B2E7936A0023AFE70A78D10900234C
:10339000002904D15309DB010D498C4663441F21E8
:1033A000114001228A405A6100239EE70A78D10920
:1033B0000023002904D15309DB0105498C466344ED
:1033C0001F21114001228A409A6100238DE7C046E7
:1033D00000280040F0B5DE4657464E464546E0B56B
:1033E00091B005000C00160029600800C44B9847F6
:1033F000020005280DD007001237030021680520C0
:10340000C90709D511B03CBC90469946A246AB46C7
:10341000F0BD18270123F1E7216817308907F1D49F
:10342000052A49D0B749C86901229A4013000343CD
:10343000CB610FA92D239846F35C0B70FFB23800C7
:10344000B14B98473800B14B98474346F05C002198
:10345000AF4B9847F37A6B712423F35CAB71252350
:10346000F35CEB71F37E2B72337F6B722B689846A3
:103470001800A34B9847052826D0123000220E23AF
:1034800006A98C4663441A80328A02928023DB01AB
:103490009A4200D1A7E019D9C023DB01029A9A42CF
:1034A00000D19BE080231B029A4200D023E103233A
:1034B00006930023079312E09249086A043A9A405F
:1034C000130003430B62B4E71820D7E780239B0166
:1034D0009A4200D00FE1102306930F3B0793336805
:1034E0000593F3689B4673690393337E0493262305
:1034F000F35C9A4673689946002B00D19BE08023C9
:103500005B05994504D12723F35C002B00D180E0B3
:10351000737E002B02D0B37E424693730E2306AA1D
:10352000944663441B8842469381059B5A46134345
:10353000039A13434A461343029F1F43049B1B02F3
:103540001F4353465B071F432723F35C002B01D126
:1035500004331F43737E9B02327F52021343727FF8
:10356000120213432422B25C520413432522B25C9C
:1035700012041343B17AF27A114319433389FF2BB2
:103580007DD080225204174319432C23F35C002B77
:1035900003D1604B9B789B0701D580231F432A688A
:1035A000D369002BFCD1434659602A68D369002BAC
:1035B000FCD143461F600EAB80221A7000225A7065
:1035C000DA709A70336B0A93736B0B93B36B0C9333
:1035D000F36B02930D9300270AAE5EE00823069377
:1035E000073B07937BE733680593F3689B46736952
:1035F0000393337E04932623F35C9A4673689946BB
:10360000002B14D080235B05994500D17BE7002077
:1036100020E0336A1F00C0B23F4B984701000E22E2
:1036200006AB9C46624438003C4B984712E00823A6
:103630000693002307932723F35C002B0ED0069BF1
:103640000093079B0E2206A98C466244B16A306A39
:10365000334FB847002800D0D4E659E7336A1F003B
:10366000C0B22D4B98470100069B0093079B0E228A
:1036700006A8844662443800294FB847EAE7F37E3B
:10368000002B82D08023DB041F437EE72000254BE4
:10369000984707E00137042F0DD0F9B2BB009859C5
:1036A0000028F3D0431CF5D00EA90870000CC0B25E
:1036B0001D4B9847EEE70023EB602B616B61AB611C
:1036C000EB612B62AB626B620022EB85AB85303322
:1036D000EA540133EA540133EA540133EA542868C6
:1036E000074B984704001149114B9847A400114B10
:1036F000E550002086E61023069300230793EEE6AC
:10370000FD2E000000040040F94100008941000046
:10371000552D0000002000411D420000972C0000A4
:10372000C12C0000A12D0000F54200001D39000051
:10373000392F000060110020C2791C23002A01D11A
:1037400018007047C28D92B2173B002AF8D1026868
:1037500011850221137E0B42FCD00023F0E7827911
:103760001C23002A01D118007047828D92B2173BAA
:10377000002AF8D10268107E4007F4D5538BDBB2E3
:1037800098061DD0980703D5022353831833EAE720
:10379000580703D5042353831A33E4E7D80703D526
:1037A000012353831233DEE7D80603D51023538356
:1037B0003233D8E79B0603D5202353832133D2E746
:1037C000138D0B800023CEE7F0B5CE46474680B57B
:1037D00083B0050001911720002A04D103B00CBC6E
:1037E00090469946F0BDEB790530002BF6D02C6859
:1037F000013A93B2994600260127204B984611E0E2
:10380000731C9BB2019A915D6A79012A17D089B223
:103810001E0028001A4B98474B46013B9BB2994625
:10382000434513D0237E3B42EAD1144B227E3A42D9
:10383000E6D1012B19D0013B002BF7D1E0E702368E
:10384000B6B2019AD35C1B021943E2E7237E9B07C1
:103850000DD40A4B0221227E0A420AD1012B0AD042
:10386000013B002BF7D10020B8E71220B6E700207B
:10387000B4E70020B2E71220B0E7C046FFFF000027
:1038800039370000F0B5D64600B584B00400019188
:103890001720002A03D104B004BC9246F0BDA379DE
:1038A0000530002BF7D02668013A93B29A460025DE
:1038B000042719E0002302AAD380911D2000154B94
:1038C00098470028E7D1691C89B202ABDB88019ACE
:1038D00053556279012A14D00D005346013B9BB227
:1038E0009A460D4B9A45D6D0337E3B42E2D10A4BE5
:1038F000327E3A42DED1012B09D0013B002BF7D1B9
:10390000D8E70235ADB21B0A019A5354E5E71220FD
:10391000C1E7C0465F370000FFFF0000F8B5800038
:10392000624BC5582C68E369002BFCD1237EA67D31
:103930001E403023EB5C3122AF5C1F40F30722D5E1
:10394000EB8D9BB2002B1CD0AA6A1378DBB2511C02
:10395000A962697901290ED09BB2DB05DB0D2385B5
:10396000EB8D013B9BB2EB85002B0CD10133237512
:103970000133A37507E0517809020B430232AA62B2
:10398000EBE701232375B30706D502232375002235
:103990003133EA54FB071AD4730765D5AB8D9BB25C
:1039A000002B5FD0638BDBB21A0714D43F22134085
:1039B000002B34D09A0711D51A223223EA54303B17
:1039C00063837B0750D528006B6998474CE028003B
:1039D000EB689847E0E737221340E9E75A0705D537
:1039E0001E223223EA542E3B6383EAE7DA0705D529
:1039F00013223223EA54313B6383E2E7DA0605D52A
:103A000042223223EA54223B6383DAE720221A421D
:103A1000D7D021323223EA54123B6383D1E7238D7E
:103A2000DB05DB0DDAB2696A0A706A6A511C6962E9
:103A30006979012910D0AB8D013B9BB2AB85002B7E
:103A400012D10433237500222E33EA54BB070BD561
:103A500028002B69984707E01B0A53706B6A0133F3
:103A60006B62E8E704232375F30604D5102323755E
:103A70002376FB060ED4B30604D5202323752376C4
:103A80003B070BD4330704D5082323752376BB06E5
:103A900008D4F8BD2800EB699847ECE72800AB692B
:103AA0009847EFE72B6A28009847F2E7601100205B
:103AB00010B5082803D880001C4B1B589F460020D7
:103AC00032E01B4B18692FE01A4B187D0007800F5E
:103AD000431C1948584327E0154B586924E0144B00
:103AE0001B6800209B071FD5124980225200CB681B
:103AF0001342FCD00E4B1B685B0701D40F4813E048
:103B000000200F4B98470A4B9B681B041B0C584323
:103B10000AE02823074AD35C00209B0704D5044B06
:103B2000D86801E08020000210BDC04684E5010095
:103B3000240B0020000C004000093D00006CDC025A
:103B40001D42000070B50B4C237D857846780278C5
:103B50000321114089000C2293430B430B3A32405E
:103B6000920140218B431343ED017F2213402B43ED
:103B7000237570BD000C0040F0B5D6464F46464652
:103B8000C0B5204B9A465B69457801784C424C4160
:103B9000A14681788C46C1788846467A077A847A2D
:103BA0004068194948610121484680000422934336
:103BB000034340460840C000043293430343604639
:103BC000084000010832934303430F40BF014020E7
:103BD00083433B430E40F6014030834333437938FF
:103BE00005402D02094803402B43214009030848A2
:103BF00003400B43524653611CBC90469946A24673
:103C0000F0BDC04600100040240B0020FFF8FFFF6D
:103C1000FFEFFFFF10B5837A9B061B0C828992058C
:103C2000920D13431A494B60037A427A13438288F8
:103C3000C488224313434278D2011343827892010D
:103C400013430B600378042B11D0202B0ED1837B00
:103C50009B06428A1343028A12040E490A40134308
:103C60000B4A936011680C4B0B43136010BD837BB0
:103C70009B06428A1343028A120406490A401343F0
:103C8000034A9360136804210B431360EEE7C046B8
:103C9000240B00200000FF0324040000082803D8A0
:103CA0008000294B1B589F4617204BE0274A137D65
:103CB00002210B431375002044E0254A9369022139
:103CC0000B43936100203DE0204A138A02210B43FD
:103CD0001382002036E01E4A536902210B435361D0
:103CE00000202FE01B490B68022213430B60174B87
:103CF0001A831900FE32CB681342FCD0154A916832
:103D0000124B19625268DA6100221A8319000132DB
:103D1000FF32CB681342FCD00E4B1B689BB20B4AA0
:103D2000138300200EE0094928228B5C0220034304
:103D30008B5408003821263A435C1342FCD1002002
:103D400000E000207047C046A8E50100000C0040DC
:103D500000100040240B0020082832D880001A4BA5
:103D60001B589F46194A137D02218B43137500206F
:103D70007047174A936902218B4393610020F7E74C
:103D8000124A138A02218B4313820020F0E7104A63
:103D9000536902218B4353610020E9E70D4B1A68F8
:103DA00002218A431A601B689BB2084A13830020D1
:103DB000DEE7064928228B5C022083438B540020D7
:103DC000D6E71720D4E7C046CCE50100000C004040
:103DD00000100040240B0020F0B5CE46474680B5C9
:103DE0008DB080225200764B9A60FD3A754B9A60F6
:103DF000754A53681E218B431A390B435360802345
:103E0000DB059B78022B0FD08023DB059B785BB210
:103E1000002B09DB8023DB0501229A7101329A70A5
:103E20001A009379002BFCD009A80023037080228C
:103E30001202426083700122C270037283720332E5
:103E400042704372614B98470520614B9847614926
:103E50000122CB681A42FCD001A901254D60002443
:103E60004C700C724C7203230B7000205A4B984715
:103E700006205A4B98476B465C701D709C706846D4
:103E8000574B98470620524B98474D491022CB6814
:103E90001A42FCD001A901234B6000244C70053369
:103EA0000B700C724C7200204B4B984704AB0022F5
:103EB0009C80DC801A725A729A703F2199813B393A
:103EC00019705A70474B1B689B0E3F2B00D174E052
:103ED00004A88372B723DB0043820723837338333C
:103EE0000382414B9847414B984701AC012602960B
:103EF000002565706572052399462370267221009E
:103F00000120354B984698470120394FB8476570D6
:103F100006232370257265724B46636021000220E0
:103F2000C0470220B847267021000020314B984737
:103F30000020314B98470720254B98472049D02235
:103F40001201CB6813409342FBD12C4C0123A37187
:103F50006371237101A900234B700B724B720733FD
:103F60000B70013B4B6000201B4B98470020204BFF
:103F700098470020224B98472179C9B2214B984796
:103F8000214B984214D88023DB059B78002B0FD05F
:103F90008023DB059B785BB2002B09DB8023DB05EC
:103FA00001229A7100229A701A009379002BFCD09A
:103FB0000DB00CBC90469946F0BD203B88E7C0464A
:103FC000000C00400014004000400041793B00001C
:103FD0009D3C00000010004031400000593D0000B1
:103FE000453B000020608000153C00000D400000B3
:103FF000DD400000F941000089410000000400405C
:104000001D41000045310100001BB700064A5369FD
:1040100040210B4353610122044B1A7019000B78A5
:104020001342FCD17047C046000400400018004015
:1040300070B504000D784B78002B02D08023DB0094
:104040001D434B7A002B02D080231B011D4348687F
:1040500001280FD9431E184231D102282DD902233D
:10406000002201325B009842FBD880235B011D4394
:10407000120415430B7A002B02D080239B011D43B1
:104080000426A6401149124A4B6813401E42FBD138
:10409000104B9847A4000D4B9C466444226A802331
:1040A0005B001A402A4322626146094A4B6813406A
:1040B0001E42FBD1084B984770BD0022D5E7000493
:1040C00080239B0018430543D4E7C04600180040F6
:1040D000FC070000F11A0000311B000010B50400BD
:1040E0000422824009480A4943680B401A42FBD126
:1040F000084B9847A400054B9C466444226A8023E1
:104100005B0013432362044B984710BD0018004026
:10411000FC070000F11A0000311B0000F8B5040094
:10412000042282401248134943680B401A42FBD1D3
:10413000114B98470E4F0834A400E0590007000FB8
:104140000E4B98470600E559ED04ED0FE459240C99
:104150000B4B9847002D07D1012C07D921003000C7
:10416000084B9847060001E00134E6403000F8BDF6
:1041700000180040FC070000F11A0000B13A0000EE
:10418000311B00004531010010B50400094B984770
:10419000A000094B9C4660448022835840210B4379
:1041A00083504031403A43581A42FCD0034B984761
:1041B00010BDC046F11A000000180040311B00007D
:1041C00010B50400094B9847A000094B9C46604479
:1041D0008022835840218B4383504031403A4358DA
:1041E0001A42FCD1034B984710BDC046F11A00009B
:1041F00000180040311B000070B504000D00054B95
:1042000098472A780F2313402034A400024AA35071
:1042100070BDC046C14100000018004010B5040048
:10422000064B98472034A400054BE4582407240F7C
:10423000044B98472000044B984710BDF11A00002A
:1042400000180040311B00001D41000030B5D3783C
:10425000002B35D11378802B29D01B0680246402D3
:10426000234354780225AC4306D19478002C20D106
:104270008024A402234341605478013C012C1CD9C2
:104280000D042D0CA024E4052C431C4384620D0C6A
:10429000D02424062C431C438462D478002C22D1E1
:1042A0005B031CD59378012B1ED0416117E00023DE
:1042B000D7E7C024E4022343DDE70D4C2340DFE7CA
:1042C00041600C04240CA023DB05234383620C0C07
:1042D000D0231B0623438362D378002B03D153786A
:1042E000013B012B02D930BD8161F8E78160FAE71B
:1042F000FFFFFBFF10B50A00C1090023002904D10C
:104300004309DB0105498C4663441F2420400121F9
:1043100081401800024B984710BDC046002800405D
:104320004D4200007047000010B5054B9847054B03
:104330009847054B9847054B9847054B984710BD44
:10434000D93D0000611B000025430000452300000B
:1043500025430000931C9B001950022A09D0032A10
:104360000CD0012393401A00037E134303760020F0
:104370007047037E102213430376F8E7037E202262
:1043800013430376F3E7000070B58000164BC45862
:1043900023689D7A227E637E13401D40EB0706D47E
:1043A000AB070BD4EB0610D4AB0615D470BD2000C0
:1043B000A3689847012322689372F1E72000E3681D
:1043C0009847022322689372ECE7200023699847FC
:1043D000102322689372E7E72000636998472368F7
:1043E00020229A72E2E7C0467811002010B5002022
:1043F000014B984710BDC0468943000010B501200D
:10440000014B984710BDC0468943000010B50220FB
:10441000014B984710BDC0468943000010B50320EA
:10442000014B984710BDC0468943000010B50420D9
:10443000014B984710BDC0468943000030B587B096
:1044400001A90C4B0A0032CB32C212CB12C2019B23
:1044500098420BD0012301A99A005258824206D0FB
:104460000133052BF8D1002007B030BD0023D8B2AE
:10447000FAE7C04618E60100F0B5C64600B58EB0B2
:1044800004000D0016000800AE4B984780460CABA8
:104490001B221A705A7001329A70DA7001321A7146
:1044A00002A9A94B14330A0083CB83C283CB83C2F6
:1044B00083CB83C21B6813600023A360E360236186
:1044C00063612376637643469A00A04BD4502560FF
:1044D0003423F35CA376F378082B08D023712B6880
:1044E0000520DB0708D50EB004BC9046F0BD1720B0
:1044F0004246D207F7D4F1E7EB7A17309B07F2D4A4
:104500002B689B07EFD4337C002B12D1337F002B19
:104510001BD143465A0002A9531C9B0058584346DE
:10452000DB005B58D9B2042923D88B008849CB58CB
:104530009F4601A901238B700022CA70327E0A7047
:104540004B70307D834B9847E0E701A901238B70C6
:104550000022CA702432B21812780A704B701F33CE
:10456000F31818787B4B9847D3E77B494B6918437E
:104570004861F378082B00D186E033786A461370DF
:104580000CAB42469F5C69463800744B9847380034
:10459000734B9847F378F2791343B2881343727AD6
:1045A000002A02D0802252021343B27A002A02D09B
:1045B000802292021343F27A002A02D08022520310
:1045C0001343327B002A02D0802292031343717876
:1045D0008901B278D2011143194322681369002B73
:1045E000FCD1296022681369002BFCD1B3792B73AD
:1045F000717B4B1E99418900B37B002B01D00123B5
:10460000194322681369002BFCD1FF332B71002959
:1046100004D022681369002BFCD16971337A6B7363
:1046200022681369002BFCD12379042B59D0082B65
:1046300074D01720002B00D055E71369002BFCD154
:10464000338DAB8222681369002BFCD1738DAB8351
:1046500022681369002BFCD1B38DEB83002042E765
:104660003D498B691843886183E73B49CB6918430F
:10467000C8617EE738490B6A1843086279E7364B10
:10468000596A0843586274E743460133042B00DD3E
:1046900073E702ABD11C8900C95802329200D3588B
:1046A000DAB2042A00D968E793002E4AD3589F460D
:1046B000294A5369194351615FE7274A93691943AE
:1046C00091615AE7244AD3691943D16155E7224AD7
:1046D000136A1943116250E71F4B5A6A114359621A
:1046E0004BE71369002BFCD12833F35C2B75226850
:1046F0001369002BFCD12933F35CEB762268136934
:10470000002BFCD12A33F35C2B7722681369002B32
:10471000FCD12B33F35C6B770020E4E61369002BAC
:10472000FCD1B36A6B6122681369002BFCD1F36A78
:10473000EB6122681369002BFCD1336B2B620020E4
:10474000D1E6C0463D44000018E601007811002083
:10475000F0E50100F542000000040040F9410000CE
:104760008941000004E6010002681369002BFCD1B6
:10477000137101680B69002BFCD1803353710268FF
:104780001369002BFCD10379042B05D0082B09D029
:104790000020002B03D07047107DC0B2FBE7908A49
:1047A00080B2F8E75069F6E710B504682369002B7A
:1047B000FCD10379042B06D0082B28D0002B13D072
:1047C0001723180010BD17230129FAD8837E002B68
:1047D00005D0D2B2611830310A700023F1E7D2B2AD
:1047E000641822770023ECE717230129E9D8837E98
:1047F000002B05D092B2183149000A530023E0E79C
:1048000092B20C3149006418A2800023D9E7172323
:104810000129D6D8837E002B05D106318900641882
:1048200062600023CDE70C3189000A510023C8E7FC
:10483000FEE7000010B51A4A1A4B9A4211D01A002E
:10484000194B9A420DD2194A03339B1A9B08013324
:104850009B000022134812498C58845004329A421B
:10486000FAD1134A134B9A420AD2D34311495B1827
:1048700003218B4304339B18002102C29342FCD1D5
:104880000D4AFF210D4B8B4393600D4A53687F39CE
:104890000B4353600B4B98470B4B9847FEE7C046C2
:1048A00018F4010000000020C009002004000020CE
:1048B000C0090020301F002000ED00E000000000D3
:1048C00000400041E5620100F9C70000F0B5C646AE
:1048D00000B50C00904600280FD1002A11DD8F187A
:1048E000094E0A4D306821002B6898470134BC42BC
:1048F000F8D1404604BC9046F0BD01235B42984687
:10490000F7E78046F5E7C046941100208C1100209F
:10491000F0B5C64600B50E0015000138022810D8C3
:10492000002A11D000240C4B98460C4F43461868BF
:10493000315D3B689847002808DB0134A542F5D17A
:1049400006E00124644203E0140001E00124644213
:10495000200004BC9046F0BD94110020901100206E
:104960000300064A1268002A04D0044A1068C318DB
:10497000136070470249014A1160F6E73C0B0020C2
:10498000303F002001204042704780239B014B6054
:1049900000207047012070470020704770B582B03A
:1049A00005000E0000226B46DA80064C6B46991D0E
:1049B0002800A0470028F9D16B4606331B883370C6
:1049C00002B070BD5F37000070B505008CB2034EB9
:1049D00021002800B0470028FAD170BD3937000007
:1049E00010B582B06B46DC1D012221000F48104B30
:1049F000984772B6BFF35F8F00220E4B1A700E4BB2
:104A00001B7821780D4AD1547F2B0AD001330A4AF2
:104A100013700122074B1A70BFF35F8F62B602B0AA
:104A200010BD0022044B1A70F3E7C046400B002073
:104A3000853800000C000020F50B0020740B0020CE
:104A4000F0B591B08023DB05009300230193FF2292
:104A500069460A8100228B72CB72012424216846A8
:104A600044540131445401314354013143540A93B5
:104A7000053143540131435405930382C3760276D2
:104A80000277427613238376427780235B03039376
:104A90002F4B0C932F4B0D9301235B420E930F93DF
:104AA000E1235B0208932C4D2C4B1D602C4A2D4BAF
:104AB0001A602D4A2D4B1A606A468421C9052800C8
:104AC0002B4B98472B4F3B68986800212A4EB047E4
:104AD0003B6858680021B0472E683000274B984744
:104AE0001F2318408440264B1C602A68D369002B82
:104AF000FCD13368022213433360174B1B68DA6919
:104B0000002AFCD15968802252020A435A600121CE
:104B1000114AD171DA69002AFCD1DA69002AFCD184
:104B20005968802292020A435A6001210A4A91710F
:104B3000DA69002AFCD113490020134B984704225C
:104B40008423DB059A75FC320D4B1A6011B0F0BD61
:104B50000300040003000500400B00209411002016
:104B6000C9490000901100209D4900008C110020CF
:104B7000D5330000100000205D6C0100752F00008F
:104B800000E100E0E1490000392F000070B5154D4B
:104B90002C682000144B98471F2318401E3B83406D
:104BA000802212498B502A68D369002BFCD12368DC
:104BB0000222934323600B4B1B68DA69002AFCD165
:104BC0005A680B490A405A600021064AD171DA69D5
:104BD000002AFCD15A6807490A405A600022014B5A
:104BE0009A7170BD400B0020752F000000E100E0BD
:104BF000FFFFFEFFFFFFFDFFF0B583B00600019150
:104C00006B469D88054C064F2A0031002000B847AE
:104C10000028F9D1019803B0F0BDC046400B002038
:104C2000C937000070B502001F4B1C781F4B1B7862
:104C30009C4219D3E31A1E4803701D4B18780028B4
:104C400031D043B2002B15DB031C884200D90B1C6A
:104C5000D8B2002827D0154B1B78441EE4B201348B
:104C60001419144D002614E020008038C31A10488F
:104C70000370E2E70D4B1C7080200D4B18704BB297
:104C8000002B01DB0800E4E78020E4E733009442D6
:104C900007D0E95C117001327F2BF7D00133DBB212
:104CA000F5E7024A137070BDF50B0020F40B0020ED
:104CB000F60B0020740B002010B582B0054C0121CA
:104CC0006B46D81DA0470028F9D06B46D87902B0B2
:104CD00010BDC046254C000000B583B001216B46D5
:104CE000D81D054B9847002803DD6B46D87903B0E3
:104CF00000BD01204042FAE7254C0000134B1B6821
:104D000001211A7E0A42FCD01A7ED20700D5986291
:104D100002211A7E0A42FCD004211A7E0A42FCD0EB
:104D20001A7E002052070AD55A8B520701D5042259
:104D30005A83064A9279012A03D0986AC0B2C0B257
:104D40007047986AC005C00DF9E7C046040C002002
:104D500000B583B001A901234B7000228A700B704B
:104D60002F20024B984703B000BDC0460D2800001D
:104D700010B5054B1B68002B04D0044B9847024B21
:104D80001B68984710BDC046000C0020D55200009B
:104D900010B5054B1B68002B04D0044B9847024B01
:104DA0001B68984710BDC046FC0B0020D552000080
:104DB00010B5054B1B68002B04D0044B9847024BE1
:104DC0001B68984710BDC046F80B0020D552000064
:104DD00010B5012202490348034B984710BDC04655
:104DE00098110020040C0020E132000010B50022D0
:104DF00002490348034B984710BDC0469811002054
:104E0000040C0020E1320000F0B5D6464F4646467D
:104E1000C0B590B001AC012666700025A570267063
:104E200021005220524FB84721003E20B8472100B0
:104E30003F20B84721002F20B8478022D2024D4B97
:104E40009A614D4B8022D2059A61802212069A61A6
:104E5000802212029A61257021005320B84702ACCB
:104E60002000464B98473023029365602572E67216
:104E700021000020424B9A469847002200214148D9
:104E8000414B9946984700210020404B984698474F
:104E90000B23029365602572E67221000B20D04738
:104EA00000220B213A48C84700210B20C0470C23A1
:104EB000029365602572E67221000C20D047002223
:104EC0000C213448C84700210C20C047324B98467B
:104ED0003F2342461370557095706670A57026701A
:104EE00021003F20B84743461A78D1090023002902
:104EF00004D15309DB0129498C4663441F21114029
:104F0000012210008840986102AC227000230393B4
:104F1000049323746374A274E27423752332A3543C
:104F2000183A002108A81E4B98471E4BA361802306
:104F30005B02E3601C4BA36201235B42E3621B4BF9
:104F400023631B4B63631B4D22001B4928001B4B33
:104F500098472A68D369002BFCD1136802210B43C0
:104F6000136010B01CBC90469946A246F0BDC046E6
:104F70000D2800000029004080280040A5230000E3
:104F8000B9230000B14D000065220000912200000D
:104F9000914D0000714D0000981100200028004044
:104FA000656A010080841E000500530005003E0074
:104FB00005005200040C00200010004205300000E3
:104FC000074B1A68D369002BFCD1136802210B43ED
:104FD0001360034B1A68D369002BFCD17047C0469D
:104FE000040C0020064B1A68D369002BFCD18F33C8
:104FF00013751376136802218B4313607047C04604
:10500000040C002070B582B00A4CA0470A4D8026DF
:1050100036026E610120094B984701A900230B70ED
:1050200001224A708B702F20054B9847AE61A04734
:1050300002B070BD514D000080280040A152000018
:105040000D28000070B504000D00054B9847802026
:105050002043044CA0472800A047034B984770BD4D
:10506000D14D0000FD4C0000ED4D000010B50400D6
:10507000064B98477F202040054CA047FF20A047C3
:105080000400044B9847200010BDC046D14D0000DD
:10509000FD4C0000ED4D000070B504000E00150041
:1050A0000A4B984780202043094B9847002D0AD08F
:1050B0003400013DEDB201357519054E2078B04739
:1050C0000134AC42FAD1034B984770BDD14D00007A
:1050D000FD4C0000ED4D000070B504000E00150001
:1050E0000A4B984720000A4B9847002D0BD03400FC
:1050F000013DEDB201357519054EFF20B047207016
:105100000134AC42F9D1034B984770BDD14D00003A
:10511000FD4C0000ED4D0000022807D0042808D007
:10512000012800D07047044B1960FBE7034B19605E
:10513000F8E7034B1960F5E7F80B0020FC0B0020A3
:10514000000C002001280AD0002908D002280AD12A
:10515000012908D180229201034B5A6103E0802289
:105160009201014B9A61704700280040012801D04C
:10517000002903D180229201014B5A617047C04639
:1051800000280040022070470020704710B58022A0
:105190009200034B9A610220024B984710BDC04613
:1051A00000280040C51A000080229200014B5A617D
:1051B0007047C04600280040012802D002280CD0C9
:1051C000704704228023DB055A701A005378042BA1
:1051D000FCD1BFF34F8F30BFF2E705228023DB0500
:1051E0005A701A005378052BFCD1BFF34F8F30BF94
:1051F000E6E7000010B584B001226B469A700023E8
:105200006946CB700A716A460B80013B0293039397
:10521000044C05492000054B98472000044B984753
:1052200004B010BD9C11002000200040BD290000EA
:105230003D28000010B50248024B984710BDC046FB
:105240009C1100202D29000070B505000E000A4CAD
:1052500000212000094B9847082231002000084B0C
:105260009847002229002000064B9847082120007B
:10527000054B984770BDC0469C110020E9280000EE
:10528000592A000059290000952A000010B508216C
:105290000148024B984710BD9C110020D92A0000FC
:1052A00010B5002803D10120024B984710BD024BD6
:1052B0009847FBE7991A0000C51A000010B5014B8A
:1052C000984710BDF11A000010B5014B984710BD6A
:1052D000311B000070B5164B1B78012B00D070BD40
:1052E0000022134B1A70134B9847134B98471349DE
:1052F000134B9847134B984704000D00124B9847E7
:1053000020002900114B9847114B1B68002BE6D059
:105310009E68002EE3D0FA2292000023200029008C
:105320000C4CA047B0470022094B1A60D7E7C04693
:10533000100C0020355200003D450100D723F441F8
:10534000E53E0100213601008D52000079C00000C9
:10535000140C00202135010070B5041E55D02C4BD3
:105360001B780020002B00D070BD2A4B984703000B
:105370000020002BF8D02368274A94466344274A2C
:105380009342F1D82379022B21D0012B25D001257E
:105390006D42204B984703000020002BE4D0204BA7
:1053A000984728000A381F4B98471F491F4B9847BA
:1053B0001F4B98471F49204B98470122144B1A70E6
:1053C0001E4B1C6020791E4B98470120CCE71D4BDB
:1053D0009847431C17D00020C6E71A4B9847431C38
:1053E0000BD0FA218900184B984703000A4A81180C
:1053F0000A4A00209142B7D800E0144B25689D422C
:10540000C7D91D00C5E72568C3E70020ACE7C04643
:10541000100C00203DC2000018FCFFFFC8BBCE07E7
:1054200045C000003D45010075130342E53E010003
:10543000B5350100D552000049520000140C00207F
:10544000B951000081BD000045310100B0BFCE0759
:105450007047000070B586B08E4B03212622995408
:10546000102404329C54293A26315A5402395A5491
:105470001A00833200211A71150A5D71150C9D7195
:10548000120EDA711A0043321A70150A5D70150C8B
:105490009D70120EDA701A00A3321A72150A5D722C
:1054A000150C9D72120EDA721A006432FF321A74F1
:1054B000150A5D74150C9D74120EDA741A003432DC
:1054C0001A75150A5D75150C9D75120EDA751A00A0
:1054D0003D321A76150A5D76150C9D76120EDA7637
:1054E0001A00C432FF321A73150A5D73150C9D73CE
:1054F000120EDA73022222255A5501355A5500251B
:105500001D77163D5D771C359D773135DD77163D6E
:105510005A553226013D5E55193D0E3E9D550136C8
:10552000995507369D5501369D5521355C55B13449
:10553000FF341A55584A15786824FF341D5555789C
:105540002B3CFF3C1D5594783C229C540024043A8B
:105550009C5401329C5401329C5401329C540732B9
:1055600099541A003E32117051709170D170C3314C
:10557000FF315A5C01242243022422435A542E2232
:10558000985406380A2408281AD9444B1B78002B53
:1055900002D10122414B1A70414B9847414B984729
:1055A000414B98473B4B414A9A5C4149585C000249
:1055B0001043C1B2000A3F4B9847200006B070BDAF
:1055C0001C00180083302A3A3B493C4DA847200074
:1055D000A33018223A49A8472000C430FF300C22DB
:1055E0003849A8472000AE30FF3002223649A8478C
:1055F00002232848FF252A24027941790902114310
:10560000827912041143C27912060A4359008A189A
:1056100055700133DBB202579342EDDB1D4C102273
:10562000C223FF33E254207863781B020343A0783F
:1056300000040343E07800061843303223491F4B2F
:10564000984704230421224AA1540021214AA1544D
:10565000A2185370013184229200A154A2185370F1
:105660000131124AA154A2185370002283239B00D7
:10567000E2549C4664440023637002AB03321A7107
:10568000154A00921549039A154B0420154CA04762
:1056900008247AE7F8130020F4130020180C0020E7
:1056A000E99B000019A30000EDA500001202000014
:1056B0001302000021AE00006CE601004169010008
:1056C00054E60100B4E60100B0E6010070E6010016
:1056D0000B0200000E02000051540000D411002003
:1056E000C0E6010085AE000070470000F0B5DE4660
:1056F00057464E464546E0B587B08346834C032166
:105700002623E15445310433E1544139033BE1544C
:105710002000B33000262071030A6371030CA371CB
:10572000030EE37143239846A04443462370434647
:105730001B0A637043461B0CA37043461B0EE370A9
:105740002123F831E154082508270133E5540133BA
:10575000E554833B9C46237770236377A777393BD7
:10576000E377C739173BE15424221A3BA354013293
:10577000A6541B3292465422FF325346A354AA2306
:105780005B00E5545023FF33E65401334E3AFF3AB1
:10579000E2545223FF33E554453BFF3B99464633E1
:1057A000FF334A46E2545623FF33E554002399461B
:1057B0004423FF334A46E25423004433FF33282274
:1057C00052425A70742252429A703622DA70602322
:1057D00099464823FF334A46E25423004833FF33B7
:1057E0007A2252425A70692252429A703622DA70F4
:1057F0004C23FF336246E25423004C33FF337022C4
:105800005A709F703722DA702300343323751A0AD6
:1058100062751A0CA2751B0EE37523003D332376C7
:105820001A0A62761A0CA2761B0EE37605239C46B2
:1058300027336246E254223B9C4623336246E254BD
:105840000F3B9C460A336246E2545823FF33E6542A
:105850002F4B9A461A7891463D224B46A354534605
:105860005B789C463C236246E2540023635400214B
:105870003933E1540133E1540133E1540733E65441
:1058800023003E33197059709970D9702E235A46EF
:10589000E25490221F49204B9946984770221F4995
:1058A0004046C847AB235B00E6541D4BE55400223D
:1058B0001C4BE254E3185F7084239B00E254E3180E
:1058C0005A70194BE254E3185A70013283239B003B
:1058D000E2549C466444677002AB01321A71134A69
:1058E00000921349039A134B0820134CA047134B03
:1058F0009847134B9847134B9847082007B03CBC78
:1059000090469946A246AB46F0BDC046F81300202B
:10591000F4130020D8E601004169010068E70100A6
:105920000B0200000E02000012020000E956000007
:10593000D8110020D8E7010085AE0000319D00009D
:1059400085A3000061A6000070470000F0B58BB091
:10595000A24B032126229954102504329D5406247B
:10596000013A9C54053C023A9C541A0083320024AC
:105970001A71160A5E71160C9E71120EDA711A00F7
:1059800043321A70160A5E70160C9E70120EDA7090
:105990001A00C432FF321A73160A5E73160C9E7315
:1059A000120EDA731A00A3321A72160A5E72160CFD
:1059B0009E72120EDA721A006432FF321A74160ADC
:1059C0005E74160C9E74120EDA741A0034321A7554
:1059D000160A5E75160C9E75120EDA751A003D32A7
:1059E0001A76160A5E76160C9E76120EDA7621224A
:1059F00099542226013A9E54193A02369A55013694
:105A00009C55052707369F5501369A55BA32FF3205
:105A10009954993AFF3A9D54714A15786821FF319B
:105A20005D5455782B39FF395D5491783C22995457
:105A30000021043A995401329954013299540132A7
:105A4000995407329C541A003E3211705170917073
:105A5000D1702E229854002806D0C623012800D1E8
:105A600084E018000BB0F0BD1C0018008330283A09
:105A70005C495D4DA8472000A33024225B49A8471C
:105A80002000C430FF3048225949A8472000AE30DA
:105A9000FF300C225749A84703235048FF252A24EA
:105AA0000279417909021143827912041143C279C2
:105AB00012060A4359008A1855700133DBB20257A7
:105AC0009342EDDB454B002222215A5401315A54B6
:105AD00008321A77223A5A77133A9A776032DA778D
